{
  "contractName": "Vault",
  "abi": [
    {
      "inputs": [],
      "stateMutability": "nonpayable",
      "type": "constructor"
    },
    {
      "anonymous": false,
      "inputs": [
        {
          "indexed": true,
          "internalType": "address",
          "name": "previousOwner",
          "type": "address"
        },
        {
          "indexed": true,
          "internalType": "address",
          "name": "newOwner",
          "type": "address"
        }
      ],
      "name": "OwnershipTransferred",
      "type": "event"
    },
    {
      "anonymous": false,
      "inputs": [
        {
          "indexed": false,
          "internalType": "address",
          "name": "withdrawer",
          "type": "address"
        },
        {
          "indexed": false,
          "internalType": "uint256",
          "name": "amount",
          "type": "uint256"
        }
      ],
      "name": "Withdraw",
      "type": "event"
    },
    {
      "inputs": [
        {
          "internalType": "address",
          "name": "",
          "type": "address"
        },
        {
          "internalType": "uint256",
          "name": "",
          "type": "uint256"
        }
      ],
      "name": "depositsByTokenAddress",
      "outputs": [
        {
          "internalType": "uint256",
          "name": "",
          "type": "uint256"
        }
      ],
      "stateMutability": "view",
      "type": "function"
    },
    {
      "inputs": [
        {
          "internalType": "address",
          "name": "",
          "type": "address"
        },
        {
          "internalType": "uint256",
          "name": "",
          "type": "uint256"
        }
      ],
      "name": "depositsByWithdrawers",
      "outputs": [
        {
          "internalType": "uint256",
          "name": "",
          "type": "uint256"
        }
      ],
      "stateMutability": "view",
      "type": "function"
    },
    {
      "inputs": [],
      "name": "depositsCount",
      "outputs": [
        {
          "internalType": "uint256",
          "name": "",
          "type": "uint256"
        }
      ],
      "stateMutability": "view",
      "type": "function"
    },
    {
      "inputs": [],
      "name": "helpiMarketingAddress",
      "outputs": [
        {
          "internalType": "address",
          "name": "",
          "type": "address"
        }
      ],
      "stateMutability": "view",
      "type": "function"
    },
    {
      "inputs": [
        {
          "internalType": "uint256",
          "name": "",
          "type": "uint256"
        }
      ],
      "name": "lockedToken",
      "outputs": [
        {
          "internalType": "contract IERC20",
          "name": "token",
          "type": "address"
        },
        {
          "internalType": "address",
          "name": "withdrawer",
          "type": "address"
        },
        {
          "internalType": "uint256",
          "name": "amount",
          "type": "uint256"
        },
        {
          "internalType": "uint256",
          "name": "unlockTimestamp",
          "type": "uint256"
        },
        {
          "internalType": "bool",
          "name": "withdrawn",
          "type": "bool"
        },
        {
          "internalType": "bool",
          "name": "deposited",
          "type": "bool"
        }
      ],
      "stateMutability": "view",
      "type": "function"
    },
    {
      "inputs": [],
      "name": "owner",
      "outputs": [
        {
          "internalType": "address",
          "name": "",
          "type": "address"
        }
      ],
      "stateMutability": "view",
      "type": "function"
    },
    {
      "inputs": [],
      "name": "renounceOwnership",
      "outputs": [],
      "stateMutability": "nonpayable",
      "type": "function"
    },
    {
      "inputs": [
        {
          "internalType": "address",
          "name": "newOwner",
          "type": "address"
        }
      ],
      "name": "transferOwnership",
      "outputs": [],
      "stateMutability": "nonpayable",
      "type": "function"
    },
    {
      "inputs": [
        {
          "internalType": "address",
          "name": "",
          "type": "address"
        },
        {
          "internalType": "address",
          "name": "",
          "type": "address"
        }
      ],
      "name": "walletTokenBalance",
      "outputs": [
        {
          "internalType": "uint256",
          "name": "",
          "type": "uint256"
        }
      ],
      "stateMutability": "view",
      "type": "function"
    },
    {
      "inputs": [
        {
          "internalType": "contract IERC20",
          "name": "_token",
          "type": "address"
        },
        {
          "internalType": "address",
          "name": "_withdrawer",
          "type": "address"
        },
        {
          "internalType": "uint256",
          "name": "_amount",
          "type": "uint256"
        },
        {
          "internalType": "uint256",
          "name": "_unlockTimestamp",
          "type": "uint256"
        }
      ],
      "name": "lockTokens",
      "outputs": [
        {
          "internalType": "uint256",
          "name": "_id",
          "type": "uint256"
        }
      ],
      "stateMutability": "nonpayable",
      "type": "function"
    },
    {
      "inputs": [
        {
          "internalType": "uint256",
          "name": "_id",
          "type": "uint256"
        }
      ],
      "name": "withdrawTokens",
      "outputs": [],
      "stateMutability": "nonpayable",
      "type": "function"
    },
    {
      "inputs": [
        {
          "internalType": "address",
          "name": "_id",
          "type": "address"
        }
      ],
      "name": "getDepositsByTokenAddress",
      "outputs": [
        {
          "internalType": "uint256[]",
          "name": "",
          "type": "uint256[]"
        }
      ],
      "stateMutability": "view",
      "type": "function"
    },
    {
      "inputs": [
        {
          "internalType": "address",
          "name": "_token",
          "type": "address"
        },
        {
          "internalType": "address",
          "name": "_withdrawer",
          "type": "address"
        }
      ],
      "name": "getDepositsByWithdrawer",
      "outputs": [
        {
          "internalType": "uint256",
          "name": "",
          "type": "uint256"
        }
      ],
      "stateMutability": "view",
      "type": "function"
    },
    {
      "inputs": [
        {
          "internalType": "address",
          "name": "_withdrawer",
          "type": "address"
        }
      ],
      "name": "getVaultsByWithdrawer",
      "outputs": [
        {
          "internalType": "uint256[]",
          "name": "",
          "type": "uint256[]"
        }
      ],
      "stateMutability": "view",
      "type": "function"
    },
    {
      "inputs": [
        {
          "internalType": "uint256",
          "name": "_id",
          "type": "uint256"
        }
      ],
      "name": "getVaultById",
      "outputs": [
        {
          "components": [
            {
              "internalType": "contract IERC20",
              "name": "token",
              "type": "address"
            },
            {
              "internalType": "address",
              "name": "withdrawer",
              "type": "address"
            },
            {
              "internalType": "uint256",
              "name": "amount",
              "type": "uint256"
            },
            {
              "internalType": "uint256",
              "name": "unlockTimestamp",
              "type": "uint256"
            },
            {
              "internalType": "bool",
              "name": "withdrawn",
              "type": "bool"
            },
            {
              "internalType": "bool",
              "name": "deposited",
              "type": "bool"
            }
          ],
          "internalType": "struct Vault.Items",
          "name": "",
          "type": "tuple"
        }
      ],
      "stateMutability": "view",
      "type": "function"
    },
    {
      "inputs": [
        {
          "internalType": "address",
          "name": "_token",
          "type": "address"
        }
      ],
      "name": "getTokenTotalLockedBalance",
      "outputs": [
        {
          "internalType": "uint256",
          "name": "",
          "type": "uint256"
        }
      ],
      "stateMutability": "view",
      "type": "function"
    }
  ],
  "bytecode": "0x60806040523480156200001157600080fd5b5062000032620000266200003860201b60201c565b6200004060201b60201c565b62000104565b600033905090565b60008060009054906101000a900473ffffffffffffffffffffffffffffffffffffffff169050816000806101000a81548173ffffffffffffffffffffffffffffffffffffffff021916908373ffffffffffffffffffffffffffffffffffffffff1602179055508173ffffffffffffffffffffffffffffffffffffffff168173ffffffffffffffffffffffffffffffffffffffff167f8be0079c531659141344cd1fd0a4f28419497f9722a3daafe3b4186f6b6457e060405160405180910390a35050565b6125fc80620001146000396000f3fe608060405234801561001057600080fd5b50600436106101005760003560e01c806386f65a2211610097578063b78a153211610066578063b78a1532146102d5578063b9e7df1c14610305578063bb941cff14610335578063f2fde38b1461036a57610100565b806386f65a22146102275780638da5cb5b146102575780639470877614610275578063aa9ce2e6146102a557610100565b8063715018a6116100d3578063715018a61461019f57806371546b81146101a957806374e7ff9e146101d95780637d533c1e146101f757610100565b8063315a095d146101055780633fd97b9b146101215780634506e935146101515780636a8003301461016f575b600080fd5b61011f600480360381019061011a9190611946565b610386565b005b61013b6004803603810190610136919061187e565b6107d3565b604051610148919061204d565b60405180910390f35b610159610804565b604051610166919061204d565b60405180910390f35b61018960048036038101906101849190611842565b61080a565b604051610196919061204d565b60405180910390f35b6101a7610891565b005b6101c360048036038101906101be9190611819565b6108a5565b6040516101d09190611ded565b60405180910390f35b6101e161093c565b6040516101ee9190611d49565b60405180910390f35b610211600480360381019061020c91906118e3565b610962565b60405161021e919061204d565b60405180910390f35b610241600480360381019061023c9190611819565b610e63565b60405161024e9190611ded565b60405180910390f35b61025f610efa565b60405161026c9190611d49565b60405180910390f35b61028f600480360381019061028a9190611946565b610f23565b60405161029c9190612032565b60405180910390f35b6102bf60048036038101906102ba919061187e565b611046565b6040516102cc919061204d565b60405180910390f35b6102ef60048036038101906102ea9190611819565b611077565b6040516102fc919061204d565b60405180910390f35b61031f600480360381019061031a9190611842565b611109565b60405161032c919061204d565b60405180910390f35b61034f600480360381019061034a9190611946565b61112e565b60405161036196959493929190611e0f565b60405180910390f35b610384600480360381019061037f9190611819565b6111c4565b005b60046000828152602001908152602001600020600301544210156103df576040517f08c379a00000000000000000000000000000000000000000000000000000000081526004016103d690611ed2565b60405180910390fd5b6004600082815260200190815260200160002060010160009054906101000a900473ffffffffffffffffffffffffffffffffffffffff1673ffffffffffffffffffffffffffffffffffffffff163373ffffffffffffffffffffffffffffffffffffffff1614610483576040517f08c379a000000000000000000000000000000000000000000000000000000000815260040161047a90611fd2565b60405180910390fd5b6004600082815260200190815260200160002060040160019054906101000a900460ff166104e6576040517f08c379a00000000000000000000000000000000000000000000000000000000081526004016104dd90611e92565b60405180910390fd5b6004600082815260200190815260200160002060040160009054906101000a900460ff161561054a576040517f08c379a000000000000000000000000000000000000000000000000000000000815260040161054190611ef2565b60405180910390fd5b60016004600083815260200190815260200160002060040160006101000a81548160ff0219169083151502179055506106546004600083815260200190815260200160002060020154600560006004600086815260200190815260200160002060000160009054906101000a900473ffffffffffffffffffffffffffffffffffffffff1673ffffffffffffffffffffffffffffffffffffffff1673ffffffffffffffffffffffffffffffffffffffff16815260200190815260200160002060003373ffffffffffffffffffffffffffffffffffffffff1673ffffffffffffffffffffffffffffffffffffffff1681526020019081526020016000205461124890919063ffffffff16565b600560006004600085815260200190815260200160002060000160009054906101000a900473ffffffffffffffffffffffffffffffffffffffff1673ffffffffffffffffffffffffffffffffffffffff1673ffffffffffffffffffffffffffffffffffffffff16815260200190815260200160002060003373ffffffffffffffffffffffffffffffffffffffff1673ffffffffffffffffffffffffffffffffffffffff168152602001908152602001600020819055507f884edad9ce6fa2440d8a54cc123490eb96d2768479d49ff9c7366125a9424364336004600084815260200190815260200160002060020154604051610751929190611dc4565b60405180910390a16107d03360046000848152602001908152602001600020600201546004600085815260200190815260200160002060000160009054906101000a900473ffffffffffffffffffffffffffffffffffffffff1673ffffffffffffffffffffffffffffffffffffffff1661125e9092919063ffffffff16565b50565b600260205281600052604060002081815481106107ef57600080fd5b90600052602060002001600091509150505481565b60015481565b6000600560008473ffffffffffffffffffffffffffffffffffffffff1673ffffffffffffffffffffffffffffffffffffffff16815260200190815260200160002060008373ffffffffffffffffffffffffffffffffffffffff1673ffffffffffffffffffffffffffffffffffffffff16815260200190815260200160002054905092915050565b6108996112e4565b6108a36000611362565b565b6060600360008373ffffffffffffffffffffffffffffffffffffffff1673ffffffffffffffffffffffffffffffffffffffff16815260200190815260200160002080548060200260200160405190810160405280929190818152602001828054801561093057602002820191906000526020600020905b81548152602001906001019080831161091c575b50505050509050919050565b600660009054906101000a900473ffffffffffffffffffffffffffffffffffffffff1681565b60006101f483116109a8576040517f08c379a000000000000000000000000000000000000000000000000000000000815260040161099f90611ff2565b60405180910390fd5b6402540be40082106109ef576040517f08c379a00000000000000000000000000000000000000000000000000000000081526004016109e690611fb2565b60405180910390fd5b428211610a31576040517f08c379a0000000000000000000000000000000000000000000000000000000008152600401610a2890611f72565b60405180910390fd5b828573ffffffffffffffffffffffffffffffffffffffff1663dd62ed3e33306040518363ffffffff1660e01b8152600401610a6d929190611d64565b60206040518083038186803b158015610a8557600080fd5b505afa158015610a99573d6000803e3d6000fd5b505050506040513d601f19601f82011682018060405250810190610abd919061196f565b1015610afe576040517f08c379a0000000000000000000000000000000000000000000000000000000008152600401610af590611f32565b60405180910390fd5b610b2b3330858873ffffffffffffffffffffffffffffffffffffffff16611426909392919063ffffffff16565b610bba83600560008873ffffffffffffffffffffffffffffffffffffffff1673ffffffffffffffffffffffffffffffffffffffff16815260200190815260200160002060003373ffffffffffffffffffffffffffffffffffffffff1673ffffffffffffffffffffffffffffffffffffffff168152602001908152602001600020546114af90919063ffffffff16565b600560008773ffffffffffffffffffffffffffffffffffffffff1673ffffffffffffffffffffffffffffffffffffffff16815260200190815260200160002060003373ffffffffffffffffffffffffffffffffffffffff1673ffffffffffffffffffffffffffffffffffffffff16815260200190815260200160002081905550600160008154610c499061220e565b9190508190559050846004600083815260200190815260200160002060000160006101000a81548173ffffffffffffffffffffffffffffffffffffffff021916908373ffffffffffffffffffffffffffffffffffffffff160217905550836004600083815260200190815260200160002060010160006101000a81548173ffffffffffffffffffffffffffffffffffffffff021916908373ffffffffffffffffffffffffffffffffffffffff16021790555082600460008381526020019081526020016000206002018190555081600460008381526020019081526020016000206003018190555060006004600083815260200190815260200160002060040160006101000a81548160ff02191690831515021790555060016004600083815260200190815260200160002060040160016101000a81548160ff021916908315150217905550600260008673ffffffffffffffffffffffffffffffffffffffff1673ffffffffffffffffffffffffffffffffffffffff168152602001908152602001600020819080600181540180825580915050600190039060005260206000200160009091909190915055600360008573ffffffffffffffffffffffffffffffffffffffff1673ffffffffffffffffffffffffffffffffffffffff168152602001908152602001600020819080600181540180825580915050600190039060005260206000200160009091909190915055949350505050565b6060600260008373ffffffffffffffffffffffffffffffffffffffff1673ffffffffffffffffffffffffffffffffffffffff168152602001908152602001600020805480602002602001604051908101604052809291908181526020018280548015610eee57602002820191906000526020600020905b815481526020019060010190808311610eda575b50505050509050919050565b60008060009054906101000a900473ffffffffffffffffffffffffffffffffffffffff16905090565b610f2b61174a565b600460008381526020019081526020016000206040518060c00160405290816000820160009054906101000a900473ffffffffffffffffffffffffffffffffffffffff1673ffffffffffffffffffffffffffffffffffffffff1673ffffffffffffffffffffffffffffffffffffffff1681526020016001820160009054906101000a900473ffffffffffffffffffffffffffffffffffffffff1673ffffffffffffffffffffffffffffffffffffffff1673ffffffffffffffffffffffffffffffffffffffff16815260200160028201548152602001600382015481526020016004820160009054906101000a900460ff161515151581526020016004820160019054906101000a900460ff1615151515815250509050919050565b6003602052816000526040600020818154811061106257600080fd5b90600052602060002001600091509150505481565b60008173ffffffffffffffffffffffffffffffffffffffff166370a08231306040518263ffffffff1660e01b81526004016110b29190611d49565b60206040518083038186803b1580156110ca57600080fd5b505afa1580156110de573d6000803e3d6000fd5b505050506040513d601f19601f82011682018060405250810190611102919061196f565b9050919050565b6005602052816000526040600020602052806000526040600020600091509150505481565b60046020528060005260406000206000915090508060000160009054906101000a900473ffffffffffffffffffffffffffffffffffffffff16908060010160009054906101000a900473ffffffffffffffffffffffffffffffffffffffff16908060020154908060030154908060040160009054906101000a900460ff16908060040160019054906101000a900460ff16905086565b6111cc6112e4565b600073ffffffffffffffffffffffffffffffffffffffff168173ffffffffffffffffffffffffffffffffffffffff16141561123c576040517f08c379a000000000000000000000000000000000000000000000000000000000815260040161123390611eb2565b60405180910390fd5b61124581611362565b50565b600081836112569190612129565b905092915050565b6112df8363a9059cbb60e01b848460405160240161127d929190611dc4565b604051602081830303815290604052907bffffffffffffffffffffffffffffffffffffffffffffffffffffffff19166020820180517bffffffffffffffffffffffffffffffffffffffffffffffffffffffff83818316178352505050506114c5565b505050565b6112ec61158c565b73ffffffffffffffffffffffffffffffffffffffff1661130a610efa565b73ffffffffffffffffffffffffffffffffffffffff1614611360576040517f08c379a000000000000000000000000000000000000000000000000000000000815260040161135790611f52565b60405180910390fd5b565b60008060009054906101000a900473ffffffffffffffffffffffffffffffffffffffff169050816000806101000a81548173ffffffffffffffffffffffffffffffffffffffff021916908373ffffffffffffffffffffffffffffffffffffffff1602179055508173ffffffffffffffffffffffffffffffffffffffff168173ffffffffffffffffffffffffffffffffffffffff167f8be0079c531659141344cd1fd0a4f28419497f9722a3daafe3b4186f6b6457e060405160405180910390a35050565b6114a9846323b872dd60e01b85858560405160240161144793929190611d8d565b604051602081830303815290604052907bffffffffffffffffffffffffffffffffffffffffffffffffffffffff19166020820180517bffffffffffffffffffffffffffffffffffffffffffffffffffffffff83818316178352505050506114c5565b50505050565b600081836114bd91906120d3565b905092915050565b6000611527826040518060400160405280602081526020017f5361666545524332303a206c6f772d6c6576656c2063616c6c206661696c65648152508573ffffffffffffffffffffffffffffffffffffffff166115949092919063ffffffff16565b9050600081511115611587578080602001905181019061154791906118ba565b611586576040517f08c379a000000000000000000000000000000000000000000000000000000000815260040161157d90612012565b60405180910390fd5b5b505050565b600033905090565b60606115a384846000856115ac565b90509392505050565b6060824710156115f1576040517f08c379a00000000000000000000000000000000000000000000000000000000081526004016115e890611f12565b60405180910390fd5b6115fa856116c0565b611639576040517f08c379a000000000000000000000000000000000000000000000000000000000815260040161163090611f92565b60405180910390fd5b6000808673ffffffffffffffffffffffffffffffffffffffff1685876040516116629190611d32565b60006040518083038185875af1925050503d806000811461169f576040519150601f19603f3d011682016040523d82523d6000602084013e6116a4565b606091505b50915091506116b48282866116e3565b92505050949350505050565b6000808273ffffffffffffffffffffffffffffffffffffffff163b119050919050565b606083156116f357829050611743565b6000835111156117065782518084602001fd5b816040517f08c379a000000000000000000000000000000000000000000000000000000000815260040161173a9190611e70565b60405180910390fd5b9392505050565b6040518060c00160405280600073ffffffffffffffffffffffffffffffffffffffff168152602001600073ffffffffffffffffffffffffffffffffffffffff16815260200160008152602001600081526020016000151581526020016000151581525090565b6000813590506117bf8161256a565b92915050565b6000815190506117d481612581565b92915050565b6000813590506117e981612598565b92915050565b6000813590506117fe816125af565b92915050565b600081519050611813816125af565b92915050565b60006020828403121561182b57600080fd5b6000611839848285016117b0565b91505092915050565b6000806040838503121561185557600080fd5b6000611863858286016117b0565b9250506020611874858286016117b0565b9150509250929050565b6000806040838503121561189157600080fd5b600061189f858286016117b0565b92505060206118b0858286016117ef565b9150509250929050565b6000602082840312156118cc57600080fd5b60006118da848285016117c5565b91505092915050565b600080600080608085870312156118f957600080fd5b6000611907878288016117da565b9450506020611918878288016117b0565b9350506040611929878288016117ef565b925050606061193a878288016117ef565b91505092959194509250565b60006020828403121561195857600080fd5b6000611966848285016117ef565b91505092915050565b60006020828403121561198157600080fd5b600061198f84828501611804565b91505092915050565b60006119a48383611d14565b60208301905092915050565b6119b98161215d565b82525050565b6119c88161215d565b82525050565b60006119d982612078565b6119e381856120a6565b93506119ee83612068565b8060005b83811015611a1f578151611a068882611998565b9750611a1183612099565b9250506001810190506119f2565b5085935050505092915050565b611a358161216f565b82525050565b611a448161216f565b82525050565b6000611a5582612083565b611a5f81856120b7565b9350611a6f8185602086016121db565b80840191505092915050565b611a84816121b7565b82525050565b611a93816121b7565b82525050565b6000611aa48261208e565b611aae81856120c2565b9350611abe8185602086016121db565b611ac781612286565b840191505092915050565b6000611adf601d836120c2565b9150611aea82612297565b602082019050919050565b6000611b026026836120c2565b9150611b0d826122c0565b604082019050919050565b6000611b256018836120c2565b9150611b308261230f565b602082019050919050565b6000611b48601d836120c2565b9150611b5382612338565b602082019050919050565b6000611b6b6026836120c2565b9150611b7682612361565b604082019050919050565b6000611b8e6015836120c2565b9150611b99826123b0565b602082019050919050565b6000611bb16020836120c2565b9150611bbc826123d9565b602082019050919050565b6000611bd46026836120c2565b9150611bdf82612402565b604082019050919050565b6000611bf7601d836120c2565b9150611c0282612451565b602082019050919050565b6000611c1a6023836120c2565b9150611c258261247a565b604082019050919050565b6000611c3d601b836120c2565b9150611c48826124c9565b602082019050919050565b6000611c606015836120c2565b9150611c6b826124f2565b602082019050919050565b6000611c83602a836120c2565b9150611c8e8261251b565b604082019050919050565b60c082016000820151611caf6000850182611a7b565b506020820151611cc260208501826119b0565b506040820151611cd56040850182611d14565b506060820151611ce86060850182611d14565b506080820151611cfb6080850182611a2c565b5060a0820151611d0e60a0850182611a2c565b50505050565b611d1d816121ad565b82525050565b611d2c816121ad565b82525050565b6000611d3e8284611a4a565b915081905092915050565b6000602082019050611d5e60008301846119bf565b92915050565b6000604082019050611d7960008301856119bf565b611d8660208301846119bf565b9392505050565b6000606082019050611da260008301866119bf565b611daf60208301856119bf565b611dbc6040830184611d23565b949350505050565b6000604082019050611dd960008301856119bf565b611de66020830184611d23565b9392505050565b60006020820190508181036000830152611e0781846119ce565b905092915050565b600060c082019050611e246000830189611a8a565b611e3160208301886119bf565b611e3e6040830187611d23565b611e4b6060830186611d23565b611e586080830185611a3b565b611e6560a0830184611a3b565b979650505050505050565b60006020820190508181036000830152611e8a8184611a99565b905092915050565b60006020820190508181036000830152611eab81611ad2565b9050919050565b60006020820190508181036000830152611ecb81611af5565b9050919050565b60006020820190508181036000830152611eeb81611b18565b9050919050565b60006020820190508181036000830152611f0b81611b3b565b9050919050565b60006020820190508181036000830152611f2b81611b5e565b9050919050565b60006020820190508181036000830152611f4b81611b81565b9050919050565b60006020820190508181036000830152611f6b81611ba4565b9050919050565b60006020820190508181036000830152611f8b81611bc7565b9050919050565b60006020820190508181036000830152611fab81611bea565b9050919050565b60006020820190508181036000830152611fcb81611c0d565b9050919050565b60006020820190508181036000830152611feb81611c30565b9050919050565b6000602082019050818103600083015261200b81611c53565b9050919050565b6000602082019050818103600083015261202b81611c76565b9050919050565b600060c0820190506120476000830184611c99565b92915050565b60006020820190506120626000830184611d23565b92915050565b6000819050602082019050919050565b600081519050919050565b600081519050919050565b600081519050919050565b6000602082019050919050565b600082825260208201905092915050565b600081905092915050565b600082825260208201905092915050565b60006120de826121ad565b91506120e9836121ad565b9250827fffffffffffffffffffffffffffffffffffffffffffffffffffffffffffffffff0382111561211e5761211d612257565b5b828201905092915050565b6000612134826121ad565b915061213f836121ad565b92508282101561215257612151612257565b5b828203905092915050565b60006121688261218d565b9050919050565b60008115159050919050565b60006121868261215d565b9050919050565b600073ffffffffffffffffffffffffffffffffffffffff82169050919050565b6000819050919050565b60006121c2826121c9565b9050919050565b60006121d48261218d565b9050919050565b60005b838110156121f95780820151818401526020810190506121de565b83811115612208576000848401525b50505050565b6000612219826121ad565b91507fffffffffffffffffffffffffffffffffffffffffffffffffffffffffffffffff82141561224c5761224b612257565b5b600182019050919050565b7f4e487b7100000000000000000000000000000000000000000000000000000000600052601160045260246000fd5b6000601f19601f8301169050919050565b7f546f6b656e7320617265206e6f7420796574206465706f736974656421000000600082015250565b7f4f776e61626c653a206e6577206f776e657220697320746865207a65726f206160008201527f6464726573730000000000000000000000000000000000000000000000000000602082015250565b7f546f6b656e7320617265207374696c6c206c6f636b6564210000000000000000600082015250565b7f546f6b656e732061726520616c72656164792077697468647261776e21000000600082015250565b7f416464726573733a20696e73756666696369656e742062616c616e636520666f60008201527f722063616c6c0000000000000000000000000000000000000000000000000000602082015250565b7f417070726f766520746f6b656e73206669727374210000000000000000000000600082015250565b7f4f776e61626c653a2063616c6c6572206973206e6f7420746865206f776e6572600082015250565b7f556e6c6f636b2074696d657374616d70206973206e6f7420696e20746865206660008201527f7574757265210000000000000000000000000000000000000000000000000000602082015250565b7f416464726573733a2063616c6c20746f206e6f6e2d636f6e7472616374000000600082015250565b7f556e6c6f636b2074696d657374616d70206973206e6f7420696e207365636f6e60008201527f6473210000000000000000000000000000000000000000000000000000000000602082015250565b7f596f7520617265206e6f74207468652077697468647261776572210000000000600082015250565b7f546f6b656e20616d6f756e7420746f6f206c6f77210000000000000000000000600082015250565b7f5361666545524332303a204552433230206f7065726174696f6e20646964206e60008201527f6f74207375636365656400000000000000000000000000000000000000000000602082015250565b6125738161215d565b811461257e57600080fd5b50565b61258a8161216f565b811461259557600080fd5b50565b6125a18161217b565b81146125ac57600080fd5b50565b6125b8816121ad565b81146125c357600080fd5b5056fea2646970667358221220bcc174e88d777d5d10e2ec9a8004266d54e56342ddf651c27ea6df49e50d457c64736f6c63430008030033",
  "immutableReferences": {},
  "source": "// SPDX-License-Identifier: MIT\npragma solidity >=0.4.22 <0.9.0;\n\nimport \"@openzeppelin/contracts/token/ERC20/IERC20.sol\";\nimport \"@openzeppelin/contracts/token/ERC20/utils/SafeERC20.sol\";\nimport \"@openzeppelin/contracts/utils/math/SafeMath.sol\";\nimport \"@openzeppelin/contracts/access/Ownable.sol\";\n\ncontract Vault is Ownable {\n    using SafeMath for uint256;\n    using SafeERC20 for IERC20;\n\n    struct Items {\n        IERC20 token;\n        address withdrawer;\n        uint256 amount;\n        uint256 unlockTimestamp;\n        bool withdrawn;\n        bool deposited;\n    }\n\n    uint256 public depositsCount;\n    mapping (address => uint256[]) public depositsByTokenAddress;\n    mapping (address => uint256[]) public depositsByWithdrawers;\n    mapping (uint256 => Items) public lockedToken;\n    mapping (address => mapping(address => uint256)) public walletTokenBalance;\n\n    address public helpiMarketingAddress;\n\n    event Withdraw(address withdrawer, uint256 amount);\n\n    constructor() {\n\n    }\n\n    function lockTokens(IERC20 _token, address _withdrawer, uint256 _amount, uint256 _unlockTimestamp) external returns (uint256 _id) {\n        require(_amount > 500, 'Token amount too low!');\n        require(_unlockTimestamp < 10000000000, 'Unlock timestamp is not in seconds!');\n        require(_unlockTimestamp > block.timestamp, 'Unlock timestamp is not in the future!');\n        require(_token.allowance(msg.sender, address(this)) >= _amount, 'Approve tokens first!');\n        _token.safeTransferFrom(msg.sender, address(this), _amount);\n\n        walletTokenBalance[address(_token)][msg.sender] = walletTokenBalance[address(_token)][msg.sender].add(_amount);\n\n        _id = ++depositsCount;\n        lockedToken[_id].token = _token;\n        lockedToken[_id].withdrawer = _withdrawer;\n        lockedToken[_id].amount = _amount;\n        lockedToken[_id].unlockTimestamp = _unlockTimestamp;\n        lockedToken[_id].withdrawn = false;\n        lockedToken[_id].deposited = true;\n\n        depositsByTokenAddress[address(_token)].push(_id);\n        depositsByWithdrawers[_withdrawer].push(_id);\n        return _id;\n    }\n\n    function withdrawTokens(uint256 _id) external {\n        require(block.timestamp >= lockedToken[_id].unlockTimestamp, 'Tokens are still locked!');\n        require(msg.sender == lockedToken[_id].withdrawer, 'You are not the withdrawer!');\n        require(lockedToken[_id].deposited, 'Tokens are not yet deposited!');\n        require(!lockedToken[_id].withdrawn, 'Tokens are already withdrawn!');\n\n        lockedToken[_id].withdrawn = true;\n\n        walletTokenBalance[address(lockedToken[_id].token)][msg.sender] = walletTokenBalance[address(lockedToken[_id].token)][msg.sender].sub(lockedToken[_id].amount);\n\n        emit Withdraw(msg.sender, lockedToken[_id].amount);\n        lockedToken[_id].token.safeTransfer(msg.sender, lockedToken[_id].amount);\n    }\n\n    function getDepositsByTokenAddress(address _id) view external returns (uint256[] memory) {\n        return depositsByTokenAddress[_id];\n    }\n\n    function getDepositsByWithdrawer(address _token, address _withdrawer) view external returns (uint256) {\n        return walletTokenBalance[_token][_withdrawer];\n    }\n\n    function getVaultsByWithdrawer(address _withdrawer) view external returns (uint256[] memory) {\n        return depositsByWithdrawers[_withdrawer];\n    }\n\n    function getVaultById(uint256 _id) view external returns (Items memory) {\n        return lockedToken[_id];\n    }\n\n    function getTokenTotalLockedBalance(address _token) view external returns (uint256) {\n       return IERC20(_token).balanceOf(address(this));\n    }\n}",
  "sourcePath": "D:\\Documents\\Learning Document\\HK20212\\Blockchain\\AutomatedVault\\contracts\\Vault.sol",
  "compiler": {
    "name": "solc",
    "version": "0.8.3+commit.8d00100c.Emscripten.clang"
  },
  "schemaVersion": "3.4.8",
  "updatedAt": "2022-07-11T03:04:41.327Z",
  "devdoc": {
    "kind": "dev",
    "methods": {
      "owner()": {
        "details": "Returns the address of the current owner."
      },
      "renounceOwnership()": {
        "details": "Leaves the contract without owner. It will not be possible to call `onlyOwner` functions anymore. Can only be called by the current owner. NOTE: Renouncing ownership will leave the contract without an owner, thereby removing any functionality that is only available to the owner."
      },
      "transferOwnership(address)": {
        "details": "Transfers ownership of the contract to a new account (`newOwner`). Can only be called by the current owner."
      }
    },
    "version": 1
  },
  "userdoc": {
    "kind": "user",
    "methods": {},
    "version": 1
  }
}